{
  "_format": "hh-sol-artifact-1",
  "contractName": "WavePortal",
  "sourceName": "contracts/WavePortal.sol",
  "abi": [
    {
      "inputs": [],
      "stateMutability": "payable",
      "type": "constructor"
    },
    {
      "inputs": [
        {
          "internalType": "uint256",
          "name": "Amount",
          "type": "uint256"
        }
      ],
      "name": "insuffient_funds",
      "type": "error"
    },
    {
      "inputs": [],
      "name": "isSuccess",
      "type": "error"
    },
    {
      "anonymous": false,
      "inputs": [
        {
          "indexed": true,
          "internalType": "address",
          "name": "from",
          "type": "address"
        },
        {
          "indexed": false,
          "internalType": "uint256",
          "name": "timestamp",
          "type": "uint256"
        },
        {
          "indexed": false,
          "internalType": "string",
          "name": "message",
          "type": "string"
        }
      ],
      "name": "NewWave",
      "type": "event"
    },
    {
      "inputs": [],
      "name": "getAllwaves",
      "outputs": [
        {
          "components": [
            {
              "internalType": "address",
              "name": "waver",
              "type": "address"
            },
            {
              "internalType": "string",
              "name": "message",
              "type": "string"
            },
            {
              "internalType": "uint256",
              "name": "timestamp",
              "type": "uint256"
            }
          ],
          "internalType": "struct WavePortal.Wave[]",
          "name": "",
          "type": "tuple[]"
        }
      ],
      "stateMutability": "view",
      "type": "function"
    },
    {
      "inputs": [],
      "name": "getTotalWaves",
      "outputs": [
        {
          "internalType": "uint256",
          "name": "",
          "type": "uint256"
        }
      ],
      "stateMutability": "view",
      "type": "function"
    },
    {
      "inputs": [
        {
          "internalType": "string",
          "name": "_message",
          "type": "string"
        }
      ],
      "name": "wave",
      "outputs": [],
      "stateMutability": "nonpayable",
      "type": "function"
    }
  ],
  "bytecode": "0x60806040526200004f6040518060400160405280601781526020017f57652068617665206265656e20636f6e747275637465640000000000000000008152506200007760201b620005001760201c565b606444426200005f91906200017c565b6200006b919062000208565b60028190555062000308565b62000117816040516024016200008e9190620002e4565b6040516020818303038152906040527f41304fac000000000000000000000000000000000000000000000000000000007bffffffffffffffffffffffffffffffffffffffffffffffffffffffff19166020820180517bffffffffffffffffffffffffffffffffffffffffffffffffffffffff83818316178352505050506200011a60201b60201c565b50565b60008151905060006a636f6e736f6c652e6c6f679050602083016000808483855afa5050505050565b6000819050919050565b7f4e487b7100000000000000000000000000000000000000000000000000000000600052601160045260246000fd5b6000620001898262000143565b9150620001968362000143565b9250827fffffffffffffffffffffffffffffffffffffffffffffffffffffffffffffffff03821115620001ce57620001cd6200014d565b5b828201905092915050565b7f4e487b7100000000000000000000000000000000000000000000000000000000600052601260045260246000fd5b6000620002158262000143565b9150620002228362000143565b925082620002355762000234620001d9565b5b828206905092915050565b600081519050919050565b600082825260208201905092915050565b60005b838110156200027c5780820151818401526020810190506200025f565b838111156200028c576000848401525b50505050565b6000601f19601f8301169050919050565b6000620002b08262000240565b620002bc81856200024b565b9350620002ce8185602086016200025c565b620002d98162000292565b840191505092915050565b60006020820190508181036000830152620003008184620002a3565b905092915050565b610e8b80620003186000396000f3fe608060405234801561001057600080fd5b50600436106100415760003560e01c8063449d46c0146100465780639a2cdc0814610062578063e0b7529014610080575b600080fd5b610060600480360381019061005b9190610996565b61009e565b005b61006a610364565b60405161007791906109f8565b60405180910390f35b6100886103af565b6040516100959190610bfd565b60405180910390f35b60016000808282546100b09190610c4e565b925050819055506100f76040518060400160405280601681526020017f257320776176656420772f206d657373616765202573000000000000000000008152503383610599565b600160405180606001604052803373ffffffffffffffffffffffffffffffffffffffff16815260200183815260200142815250908060018154018082558091505060019003906000526020600020906003020160009091909190915060008201518160000160006101000a81548173ffffffffffffffffffffffffffffffffffffffff021916908373ffffffffffffffffffffffffffffffffffffffff16021790555060208201518160010190805190602001906101b6929190610799565b50604082015181600201555050606460025444426101d49190610c4e565b6101de9190610c4e565b6101e89190610c4e565b60028190555061022f6040518060400160405280601981526020017f52616e646f6d2067656e65726174656420736565642025642000000000000000815250600254610638565b60326002541015610311576102796040518060400160405280600681526020017f257320776f6e0000000000000000000000000000000000000000000000000000815250336106d4565b6000655af3107a400090504781106102c857806040517fff9b08760000000000000000000000000000000000000000000000000000000081526004016102bf91906109f8565b60405180910390fd5b3373ffffffffffffffffffffffffffffffffffffffff166108fc829081150290604051600060405180830381858888f1935050505015801561030e573d6000803e3d6000fd5b50505b3373ffffffffffffffffffffffffffffffffffffffff167f5f7e16dc676677766a70e9c5628aa6c54ddb8b6e5188e2ae1e1f17f1ffbea7164283604051610359929190610cee565b60405180910390a250565b60006103a76040518060400160405280601781526020017f5765206861766520256420746f74616c20776176657321000000000000000000815250600054610638565b600054905090565b60606001805480602002602001604051908101604052809291908181526020016000905b828210156104f757838290600052602060002090600302016040518060600160405290816000820160009054906101000a900473ffffffffffffffffffffffffffffffffffffffff1673ffffffffffffffffffffffffffffffffffffffff1673ffffffffffffffffffffffffffffffffffffffff16815260200160018201805461045c90610d4d565b80601f016020809104026020016040519081016040528092919081815260200182805461048890610d4d565b80156104d55780601f106104aa576101008083540402835291602001916104d5565b820191906000526020600020905b8154815290600101906020018083116104b857829003601f168201915b50505050508152602001600282015481525050815260200190600101906103d3565b50505050905090565b610596816040516024016105149190610d7f565b6040516020818303038152906040527f41304fac000000000000000000000000000000000000000000000000000000007bffffffffffffffffffffffffffffffffffffffffffffffffffffffff19166020820180517bffffffffffffffffffffffffffffffffffffffffffffffffffffffff8381831617835250505050610770565b50565b6106338383836040516024016105b193929190610db0565b6040516020818303038152906040527fe0e9ad4f000000000000000000000000000000000000000000000000000000007bffffffffffffffffffffffffffffffffffffffffffffffffffffffff19166020820180517bffffffffffffffffffffffffffffffffffffffffffffffffffffffff8381831617835250505050610770565b505050565b6106d0828260405160240161064e929190610df5565b6040516020818303038152906040527f9710a9d0000000000000000000000000000000000000000000000000000000007bffffffffffffffffffffffffffffffffffffffffffffffffffffffff19166020820180517bffffffffffffffffffffffffffffffffffffffffffffffffffffffff8381831617835250505050610770565b5050565b61076c82826040516024016106ea929190610e25565b6040516020818303038152906040527f319af333000000000000000000000000000000000000000000000000000000007bffffffffffffffffffffffffffffffffffffffffffffffffffffffff19166020820180517bffffffffffffffffffffffffffffffffffffffffffffffffffffffff8381831617835250505050610770565b5050565b60008151905060006a636f6e736f6c652e6c6f679050602083016000808483855afa5050505050565b8280546107a590610d4d565b90600052602060002090601f0160209004810192826107c7576000855561080e565b82601f106107e057805160ff191683800117855561080e565b8280016001018555821561080e579182015b8281111561080d5782518255916020019190600101906107f2565b5b50905061081b919061081f565b5090565b5b80821115610838576000816000905550600101610820565b5090565b6000604051905090565b600080fd5b600080fd5b600080fd5b600080fd5b6000601f19601f8301169050919050565b7f4e487b7100000000000000000000000000000000000000000000000000000000600052604160045260246000fd5b6108a38261085a565b810181811067ffffffffffffffff821117156108c2576108c161086b565b5b80604052505050565b60006108d561083c565b90506108e1828261089a565b919050565b600067ffffffffffffffff8211156109015761090061086b565b5b61090a8261085a565b9050602081019050919050565b82818337600083830152505050565b6000610939610934846108e6565b6108cb565b90508281526020810184848401111561095557610954610855565b5b610960848285610917565b509392505050565b600082601f83011261097d5761097c610850565b5b813561098d848260208601610926565b91505092915050565b6000602082840312156109ac576109ab610846565b5b600082013567ffffffffffffffff8111156109ca576109c961084b565b5b6109d684828501610968565b91505092915050565b6000819050919050565b6109f2816109df565b82525050565b6000602082019050610a0d60008301846109e9565b92915050565b600081519050919050565b600082825260208201905092915050565b6000819050602082019050919050565b600073ffffffffffffffffffffffffffffffffffffffff82169050919050565b6000610a6a82610a3f565b9050919050565b610a7a81610a5f565b82525050565b600081519050919050565b600082825260208201905092915050565b60005b83811015610aba578082015181840152602081019050610a9f565b83811115610ac9576000848401525b50505050565b6000610ada82610a80565b610ae48185610a8b565b9350610af4818560208601610a9c565b610afd8161085a565b840191505092915050565b610b11816109df565b82525050565b6000606083016000830151610b2f6000860182610a71565b5060208301518482036020860152610b478282610acf565b9150506040830151610b5c6040860182610b08565b508091505092915050565b6000610b738383610b17565b905092915050565b6000602082019050919050565b6000610b9382610a13565b610b9d8185610a1e565b935083602082028501610baf85610a2f565b8060005b85811015610beb5784840389528151610bcc8582610b67565b9450610bd783610b7b565b925060208a01995050600181019050610bb3565b50829750879550505050505092915050565b60006020820190508181036000830152610c178184610b88565b905092915050565b7f4e487b7100000000000000000000000000000000000000000000000000000000600052601160045260246000fd5b6000610c59826109df565b9150610c64836109df565b9250827fffffffffffffffffffffffffffffffffffffffffffffffffffffffffffffffff03821115610c9957610c98610c1f565b5b828201905092915050565b600082825260208201905092915050565b6000610cc082610a80565b610cca8185610ca4565b9350610cda818560208601610a9c565b610ce38161085a565b840191505092915050565b6000604082019050610d0360008301856109e9565b8181036020830152610d158184610cb5565b90509392505050565b7f4e487b7100000000000000000000000000000000000000000000000000000000600052602260045260246000fd5b60006002820490506001821680610d6557607f821691505b60208210811415610d7957610d78610d1e565b5b50919050565b60006020820190508181036000830152610d998184610cb5565b905092915050565b610daa81610a5f565b82525050565b60006060820190508181036000830152610dca8186610cb5565b9050610dd96020830185610da1565b8181036040830152610deb8184610cb5565b9050949350505050565b60006040820190508181036000830152610e0f8185610cb5565b9050610e1e60208301846109e9565b9392505050565b60006040820190508181036000830152610e3f8185610cb5565b9050610e4e6020830184610da1565b939250505056fea2646970667358221220971a13912bf1d49ec685668ee592af528f90321587b6c9f96dc0788c18811a4264736f6c63430008090033",
  "linkReferences": {},
  "deployedLinkReferences": {}
}